:100000000C945E000C9486000C9486000C94860080
:100010000C9486000C9486000C9486000C94860048
:100020000C9486000C9486000C9486000C94860038
:100030000C9486000C9486000C9486000C94860028
:100040000C94CF030C9486000C949D030C947703BE
:100050000C9486000C9486000C9486000C94860008
:100060000C9486000C9486000000000024002700F9
:100070002A0000000008000201000003040700003D
:10008000000000000000010204081020408001026E
:1000900004081020010204081020000000002500C0
:1000A00028002B00040404040404040402020202D5
:1000B000020203030303030319048E0611241FBE67
:1000C000CFEFD8E0DEBFCDBF11E0A0E0B1E0EEEEB3
:1000D000FFE002C005900D92AC31B107D9F721E0E5
:1000E000ACE1B1E001C01D92A73EB207E1F710E01C
:1000F000CDE5D0E004C02197FE010E94B206CC35C8
:10010000D107C9F70E94B7040C94EA070C940000C9
:1001100090E0FC01EE58FF4F2491FC01EA57FF4F9D
:100120003491FC01EC55FF4FE491EE23B9F1222309
:1001300039F1233091F038F42130A9F0223001F563
:1001400084B58F7D12C0273091F02830A1F0243083
:10015000B9F4809180008F7D03C0809180008F77FB
:10016000809380000DC084B58F7784BD09C08091D5
:10017000B0008F7703C08091B0008F7D8093B00076
:10018000F0E0EE0FFF1FE656FF4FA591B4918FB739
:10019000F894EC9130953E233C938FBF08954091A5
:1001A000DB015091D8012091D6013091D701451340
:1001B00008C0AC01440F551F840F951F820F931F79
:1001C0000AC0880F991F880F991F820F931FFC0187
:1001D000E40FF11D10822091D801FC01E20FF11D06
:1001E00010822091D901FC01E20FF11D10822091B3
:1001F000DA01FC01E20FF11D10820895EF92FF92E7
:100200000F931F93CF93DF937C010BE211E0C0E0CB
:10021000D0E0CE15DF0509F449C02FB7F8948091DE
:10022000270190912801A0912901B0912A012FBFA7
:100230008093390190933A01A0933B01B0933C0124
:10024000E0913101F09132010680F781E02D81E3E8
:1002500091E0099597FF25C08FB7F8944091270149
:10026000509128016091290170912A018FBF8091DE
:10027000390190913A01A0913B01B0913C01481B9A
:10028000590B6A0B7B0B8091350190913601A0913F
:100290003701B0913801481759076A077B0780F288
:1002A00005C0F80181938F012196B3CFCE01DF9174
:1002B000CF911F910F91FF90EF900895CF92DF9211
:1002C000EF92FF920F931F93CF93DF936C017A010C
:1002D0008B01C0E0D0E0CE15DF0589F0D8016D912B
:1002E0008D01D601ED91FC910190F081E02DC601C8
:1002F0000995892B11F47E0102C02196ECCFC7012C
:10030000DF91CF911F910F91FF90EF90DF90CF90F1
:100310000895FC01918D828D981761F0828DDF0127
:10032000A80FB11D5D968C91928D9F5F9F73928FE8
:1003300090E008958FEF9FEF0895FC01918D828DDD
:10034000981731F0828DE80FF11D858D90E00895AA
:100350008FEF9FEF0895FC01918D228D892F90E002
:10036000805C9F4F821B91098F739927089581E3C9
:1003700091E00E94AB0121E0892B09F420E0822F5B
:100380000895FC01848DDF01A80FB11DA35ABF4F52
:100390002C91848D90E001968F739927848FA68984
:1003A000B7892C93A089B1898C9180648C93938DAB
:1003B000848D981306C00288F389E02D80818F7D9B
:1003C00080830895EF92FF920F931F93CF93DF9353
:1003D000EC0181E0888F9B8D8C8D981305C0E88996
:1003E000F989808185FD24C0F62E0B8D10E00F5F0A
:1003F0001F4F0F731127E02E8C8DE8120CC00FB623
:1004000007FCFACFE889F989808185FFF5CFCE0115
:100410000E94C101F1CF8B8DFE01E80FF11DE35A5F
:10042000FF4FF0820B8FEA89FB898081806207C0D1
:10043000EE89FF896083E889F989808180648083FF
:1004400081E090E0DF91CF911F910F91FF90EF90AD
:100450000895CF93DF93EC01888D8823C9F0EA8952
:10046000FB89808185FD05C0A889B9898C9186FDAD
:100470000FC00FB607FCF5CF808185FFF2CFA889AA
:10048000B9898C9185FFEDCFCE010E94C101E7CFE4
:10049000DF91CF91089580E090E0892B29F00E94B0
:1004A000B70181110C9400000895CF93DF9390E081
:1004B000FC01EA57FF4F2491FC01EC55FF4F84915A
:1004C000882361F190E0880F991FFC01E859FF4FE4
:1004D000C591D491FC01E656FF4FA591B4916111ED
:1004E00009C09FB7F8948881209582238883EC9176
:1004F0002E230BC0623061F49FB7F8943881822FAD
:10050000809583238883EC912E2B2C939FBF06C06C
:100510008FB7F894E8812E2B28838FBFDF91CF917E
:1005200008953FB7F89480911D0190911E01A0910C
:100530001F01B091200126B5A89B05C02F3F19F0DF
:100540000196A11DB11D3FBFBA2FA92F982F882753
:10055000820F911DA11DB11DBC01CD0142E0660FAE
:10056000771F881F991F4A95D1F708950F931F93FE
:10057000CF93DF93CDB7DEB729970FB6F894DEBFE0
:100580000FBECDBF8091D6019091D701892B09F480
:10059000A1C00E9491020091DC011091DD01209127
:1005A000DE013091DF01DC01CB01801B910BA20B3E
:1005B000B30BC297A105B10560F3F8948091D20105
:1005C0009091D3019A838983E091D601F091D7016C
:1005D000DF011196808189879091CE01E091E00141
:1005E000F091E1018091E201992309F42EC09081FC
:1005F000982B98879081809589238F838F818C8316
:1006000088E08B8358856F8149853B812C81898166
:100610009A81508347FD252F3A952083262F39F064
:10062000441F00C000006083000000C0F2CF38E02B
:100630004D9160830000019761F7F093E101E09331
:10064000E00149873B832C8338C09081982B9887A1
:100650009081809589238F838F818E8388E08D831D
:1006600058856F8149853D812E8189819A8150838A
:1006700047FD252F00C000C0208300C000C000C07F
:1006800000C000C060830000262F3A9541F0441F4F
:10069000000000C000C000C000C000C0E8CF38E0CB
:1006A0004D9100C0608300C0019709F7F093E1010C
:1006B000E093E00149873D832E839A838983789470
:1006C0000E9491026093DC017093DD018093DE0152
:1006D0009093DF0129960FB6F894DEBF0FBECDBF11
:1006E000DF91CF911F910F9108950E94E5071F920E
:1006F0000F920FB60F9211242F933F934F935F9356
:100700006F937F938F939F93AF93BF93EF93FF93D9
:1007100081E391E00E94C101FF91EF91BF91AF9100
:100720009F918F917F916F915F914F913F912F9109
:100730000F900FBE0F901F9018951F920F920FB63B
:100740000F9211242F938F939F93EF93FF93E09138
:100750004101F09142018081E0914701F09148010F
:1007600082FD12C0908180914A018F5F8F7320912A
:100770004B01821751F0E0914A01F0E0EF5CFE4F2F
:10078000958F80934A0101C08081FF91EF919F91E5
:100790008F912F910F900FBE0F901F9018951F9261
:1007A0000F920FB60F9211242F933F938F939F9325
:1007B000AF93BF938091270190912801A0912901C7
:1007C000B0912A0130911C0123E0230F2D3720F432
:1007D0000196A11DB11D05C026E8230F0296A11D9B
:1007E000B11D20931C018093270190932801A093B1
:1007F0002901B0932A0180911D0190911E01A091C1
:100800001F01B09120010196A11DB11D80931D0112
:1008100090931E01A0931F01B0932001BF91AF914F
:100820009F918F913F912F910F900FBE0F901F902E
:100830001895109234011092330188EE93E0A0E0F5
:10084000B0E08093350190933601A0933701B093C7
:10085000380180E191E0909332018093310185EC81
:1008600090E090933E0180933D0184EC90E0909362
:10087000400180933F0180EC90E09093420180938F
:10088000410181EC90E0909344018093430182EC1C
:1008900090E0909346018093450186EC90E0909320
:1008A00048018093470110924A0110924B01109227
:1008B0004C0110924D011092CF011092D50110926F
:1008C000DC011092DD011092DE011092DF01109226
:1008D000DB011092D80181E08093D90192E09093DE
:1008E000DA018093CE018BE190E09093D301809365
:1008F000D2010E94B8069093D7018093D601009749
:1009000061F02BE1FC0111922A95E9F789E090E072
:100910009093D1018093D00108C01092D30110921E
:10092000D2011092D1011092D00186E08093D401BF
:100930008091CF01882339F061E086E00E94550262
:1009400086E00E948800EAEAF0E0E491F0E0EE0F31
:10095000FF1FE656FF4F859194919093E10180939C
:10096000E001ECE8F0E0E491E093E201089578948E
:1009700084B5826084BD84B5816084BD85B58260A4
:1009800085BD85B5816085BD80916E008160809355
:100990006E001092810080918100826080938100BE
:1009A00080918100816080938100809180008160CE
:1009B000809380008091B10084608093B100809129
:1009C000B00081608093B00080917A008460809351
:1009D0007A0080917A00826080937A0080917A0018
:1009E000816080937A0080917A00806880937A0099
:1009F0001092C1008091D40187FD07C061E00E9480
:100A000055028091D4010E94880081E08093CF013B
:100A10006091D501613C21F12091D6013091D7013F
:100A2000615031F070E08FEF90EC0E949E0602C0A2
:100A300060E070E0F9014091D2015091D301CF0103
:100A4000821B930B8417950740F44081469FC00199
:100A5000479F900D11249193EECF81EC8093D501A7
:100A6000C0E0D0E08091D0019091D101C817D907A2
:100A700018F4CE010E94CF002196C930D10591F71C
:100A80000E94B602C0E0D0E08091D0019091D101E7
:100A9000C817D90718F4CE010E94CF000E94B602F1
:100AA0000E9491024B015C01B5E0CB2ED12CE12CD0
:100AB000F12C0E949102DC01CB0188199909AA0945
:100AC000BB09883E9340A105B10558F021E0C21A48
:100AD000D108E108F10848EE840E43E0941EA11C01
:100AE000B11CC114D104E104F10419F72196C930F5
:100AF000D10551F60E94B602E0914101F091420108
:100B000082E08083E0913D01F0913E011082E0910E
:100B10003F01F091400180E1808310924901E09112
:100B20004501F091460186E08083E0914301F09118
:100B30004401808180618083E0914301F091440110
:100B4000808188608083E0914301F091440180813D
:100B500080688083E0914301F091440180818F7D22
:100B6000808381E090E09093260180932501C1E08D
:100B7000D0E002E010E080912501909126018230C2
:100B8000910501F18330910509F452C0019709F0F4
:100B9000C2C081E391E00E94AB01181619060CF067
:100BA000BAC081E391E00E9489019093240180936F
:100BB00023018134910509F0AEC010932601009302
:100BC0002501A9C081E391E00E94AB01059708F4DB
:100BD000A2C085E090E00E94FE00209125013091A6
:100BE00026018091210190912201EBE2F1E0A7E042
:100BF000B1E041E0E033F40791F051914D9123E0F1
:100C000030E0541749F09093220180932101D09352
:100C10002601C09325017FC080E090E0EACF3093A9
:100C2000260120932501909322018093210173C016
:100C300081E391E00E94AB0103970CF45CC083E078
:100C400090E00E94FE0080912D01E0912C01209106
:100C50002B014091210150912201BA016F5F7F4F1A
:100C600070932201609321016091D0017091D101B4
:100C70004617570708F03FC0F82F9091D5019923E8
:100C800061F0299F90011124232FE99FB0011124C5
:100C9000E72FF99FC0011124F92F3091DB016091FA
:100CA000D8018091D6019091D701361308C0BA01BE
:100CB000660F771F460F571F840F951F0AC0440FFA
:100CC000551F440F551F840F951FDC01A30FB11D45
:100CD0001C923091D801DC01A30FB11D2C932091FF
:100CE000D901DC01A20FB11DEC932091DA01DC01E6
:100CF000A20FB11DFC9380912101909122010A97CE
:100D000054F00E94B602D0932601C09325011092A0
:100D10002201109221010E944B022DCF8091D60119
:100D20009091D701009711F00E944D078091D40156
:100D300087FD03C060E00C9455020895AA1BBB1BFD
:100D400051E107C0AA1FBB1FA617B70710F0A61BCB
:100D5000B70B881F991F5A95A9F780959095BC01EC
:100D6000CD010895EE0FFF1F0590F491E02D099439
:100D7000CF93DF938230910510F482E090E0E09110
:100D8000E501F091E60120E030E0C0E0D0E03097EE
:100D900011F14081518148175907C0F04817590790
:100DA00061F482819381209719F09B838A832BC001
:100DB0009093E6018093E50126C02115310519F0D5
:100DC0004217530718F49A01BE01DF01EF010280B8
:100DD000F381E02DDCCF2115310509F1281B390BFA
:100DE0002430310590F412968D919C9113976115E2
:100DF000710521F0FB019383828304C09093E60187
:100E00008093E501FD01329644C0FD01E20FF31F1E
:100E100081939193225031092D933C933AC02091B4
:100E2000E3013091E401232B41F420910201309140
:100E300003013093E4012093E301209100013091FC
:100E400001012115310541F42DB73EB74091040150
:100E500050910501241B350BE091E301F091E40171
:100E6000E217F307A0F42E1B3F0B2817390778F081
:100E7000AC014E5F5F4F2417350748F04E0F5F1FE0
:100E80005093E4014093E3018193919302C0E0E029
:100E9000F0E0CF01DF91CF9108950F931F93CF938F
:100EA000DF93009709F48CC0FC0132971382128201
:100EB0000091E5011091E6010115110581F42081F1
:100EC0003181820F931F2091E3013091E4012817B3
:100ED000390779F5F093E401E093E30171C0D8019B
:100EE00040E050E0AE17BF0750F412962D913C91B0
:100EF0001397AD012115310509F1D901F3CF9D01FA
:100F0000DA013383228360817181860F971F8217F4
:100F1000930769F4EC0128813981260F371F2E5F72
:100F20003F4F318320838A819B8193838283452B2A
:100F300029F4F093E601E093E50142C01396FC9397
:100F4000EE931297ED01499159919E01240F351F9F
:100F5000E217F30771F480819181840F951F029647
:100F600011969C938E938281938113969C938E937A
:100F70001297E0E0F0E0D80112968D919C911397C2
:100F8000009719F0F8018C01F6CF8D919C91980192
:100F90002E5F3F4F820F931F2091E3013091E401B8
:100FA0002817390769F4309729F41092E601109256
:100FB000E50102C0138212821093E4010093E30161
:100FC000DF91CF911F910F91089581E090E0F89407
:100FD0000C94EA0710E0CDE5D0E004C0FE010E94C9
:0E0FE000B2062196CE35D107C9F7F894FFCF9F
:100FEE000000E701800041646100316400000000F0
:0C0FFE00E2015E01AB0189019D012902A6
:107800000C94343C0C94513C0C94513C0C94513CE1
:107810000C94513C0C94513C0C94513C0C94513CB4
:107820000C94513C0C94513C0C94513C0C94513CA4
:107830000C94513C0C94513C0C94513C0C94513C94
:107840000C94513C0C94513C0C94513C0C94513C84
:107850000C94513C0C94513C0C94513C0C94513C74
:107860000C94513C0C94513C11241FBECFEFD8E036
:10787000DEBFCDBF11E0A0E0B1E0ECE9FFE702C060
:1078800005900D92A230B107D9F712E0A2E0B1E065
:1078900001C01D92AD30B107E1F70E942D3D0C945F
:1078A000CC3F0C94003C982F959595959595959582
:1078B000905D8F708A307CF0282F295A8091C0000B
:1078C00085FFFCCF9093C6008091C00085FFFCCF60
:1078D0002093C6000895282F205DF0CF982F809127
:1078E000C00085FFFCCF9093C6000895EF92FF92F1
:1078F0000F931F93EE24FF2487018091C00087FD22
:1079000017C00894E11CF11C011D111D81E4E8164B
:1079100082E4F8068FE0080780E0180770F3E09132
:107920000401F091050109958091C00087FFE9CF1E
:107930008091C6001F910F91FF90EF9008950E94D3
:10794000763C982F8091C00085FFFCCF9093C600B5
:1079500091362CF490330CF09053892F089597555D
:10796000892F08951F930E949F3C182F0E949F3CCF
:107970001295107F810F1F9108951F93182F882350
:1079800021F00E94763C1150E1F71F9108951F935A
:10799000182F0E94763C803249F0809103018F5F5E
:1079A000809303018530C1F01F9108958091C0003C
:1079B00085FFFCCF84E18093C6008091C00085FFE5
:1079C000FCCF1093C6008091C00085FFFCCF80E102
:1079D0008093C6001F910895E0910401F091050184
:1079E00009951F9108950E94763C803241F0809164
:1079F00003018F5F80930301853081F008958091AA
:107A0000C00085FFFCCF84E18093C6008091C00058
:107A100085FFFCCF80E18093C6000895E0910401CA
:107A2000F09105010995089540E951E08823A1F0FE
:107A30002D9A28EE33E0FA013197F1F721503040CA
:107A4000D1F72D9828EE33E0FA013197F1F7215064
:107A50003040D1F7815061F708953F924F925F9285
:107A60006F927F928F929F92AF92BF92CF92DF924E
:107A7000EF92FF920F931F93CF93DF93000080E16B
:107A80008093C4001092C50088E18093C10086E015
:107A90008093C2005098589A259A81E00E94143D24
:107AA00024E1F22E9EE1E92E85E9D82E0FE0C02ECA
:107AB00010E1B12EAA24A394B1E49B2EA6E58A2E50
:107AC000F2E57F2EE0E26E2E79E4572E63E5462E36
:107AD00050E5352E0E94763C8033B1F18133B9F107
:107AE000803409F46FC0813409F476C0823409F41B
:107AF00085C0853409F488C0803531F1823521F1A3
:107B0000813511F1853509F485C0863509F48DC0BC
:107B1000843609F496C0843709F403C1853709F423
:107B200072C1863709F466C0809103018F5F80932C
:107B30000301853079F6E0910401F0910501099582
:107B40000E94763C803351F60E94F33CC3CF0E94E2
:107B5000763C803249F78091C00085FFFCCFF092DF
:107B6000C6008091C00085FFFCCF9092C600809136
:107B7000C00085FFFCCF8092C6008091C00085FFC9
:107B8000FCCF7092C6008091C00085FFFCCF609250
:107B9000C6008091C00085FFFCCF5092C600809146
:107BA000C00085FFFCCF4092C6008091C00085FFD9
:107BB000FCCF3092C6008091C00085FFFCCFB09210
:107BC000C60088CF0E94763C863808F4BDCF0E945C
:107BD000763C0E94F33C7ECF0E94763C803809F4CC
:107BE0009CC0813809F40BC1823809F43CC1883942
:107BF00009F48FC080E00E94C73C6CCF84E10E94F2
:107C0000BD3C0E94F33C66CF85E00E94BD3C0E94D3
:107C1000F33C60CF0E94763C809306010E94763C44
:107C2000809307010E94F33C55CF0E94763C80333D
:107C300009F41DC183E00E94BD3C80E00E94C73C66
:107C400049CF0E94763C809309020E94763C809343
:107C5000080280910C028E7F80930C020E94763C79
:107C6000853409F415C18091080290910902892B8D
:107C700089F000E010E00E94763CF801E85FFE4FDA
:107C800080830F5F1F4F80910802909109020817AF
:107C9000190788F30E94763C803209F045CF809125
:107CA0000C0280FF01C16091060170910701660F0F
:107CB000771F7093070160930601A0910802B091AD
:107CC00009021097C9F0E8E0F1E09B01AD014E0F09
:107CD0005F1FF999FECF32BD21BD819180BDFA9A17
:107CE000F99A2F5F3F4FE417F50799F76A0F7B1F4B
:107CF00070930701609306018091C00085FFFCCF5F
:107D0000F092C6008091C00085FFFCCFB092C60003
:107D1000E1CE83E00E94C73CDDCE82E00E94C73CFA
:107D2000D9CE0E94763C809309020E94763C8093D3
:107D300008028091060190910701880F991F909386
:107D40000701809306010E94763C853409F4A6C0A1
:107D500080910C028E7F80930C020E94763C8032D0
:107D600009F0B8CE8091C00085FFFCCFF092C6002C
:107D7000609108027091090261157105B9F140E046
:107D800050E080910C02A82FA170B82FB27011C0E2
:107D9000BB2309F45CC0E0910601F0910701319624
:107DA000F0930701E09306014F5F5F4F46175707B7
:107DB000E8F4AA2369F3F999FECF209106013091E6
:107DC000070132BD21BDF89A90B58091C00085FFB2
:107DD000FCCF9093C6002F5F3F4F30930701209355
:107DE00006014F5F5F4F4617570718F38091C00099
:107DF00085FDE5CE8091C00085FFF8CFE0CE81E023
:107E00000E94C73C67CE0E94763C803209F08CCE3F
:107E10008091C00085FFFCCFF092C6008091C00029
:107E200085FFFCCFE092C6008091C00085FFFCCFAB
:107E3000D092C6008091C00085FFFCCFC092C600E2
:107E40008091C00085FFFCCFB092C60043CEE09188
:107E50000601F091070194918091C00085FFFCCF4D
:107E60009093C6009CCF80E10E94C73C33CE0E9415
:107E7000763C0E94763C182F0E94763C112309F430
:107E800083C0113009F484C08FE00E94C73C22CE29
:107E900080910C02816080930C02E5CE80910C02EF
:107EA000816080930C0259CF809107018823880F4D
:107EB000880B8A2180930B02809106019091070123
:107EC000880F991F90930701809306018091080203
:107ED00080FF09C080910802909109020196909359
:107EE000090280930802F894F999FECF1127E091D6
:107EF0000601F0910701C8E0D1E08091080290915D
:107F00000902103091F40091570001700130D9F34B
:107F100003E000935700E89500915700017001308D
:107F2000D9F301E100935700E89509901990009169
:107F3000570001700130D9F301E000935700E89534
:107F40001395103498F011270091570001700130FB
:107F5000D9F305E000935700E895009157000170B0
:107F60000130D9F301E100935700E895329602976A
:107F700009F0C7CF103011F00296E5CF112480919F
:107F8000C00085FFB9CEBCCE8EE10E94C73CA2CD19
:0C7F900085E90E94C73C9ECDF894FFCF0D
:027F9C00800063
:040000030000780081
:00000001FF
